:020000040800F2
:10000000005000202108000871080008710800084D
:10001000710800087108000871080008000000005D
:10002000000000000000000000000000710800084F
:10003000710800080000000071080008710800083D
:1000400071080008710800087108000871080008AC
:10005000710800087108000871080008710800089C
:10006000710800087108000871080008710800088C
:10007000710800087108000871080008710800087C
:10008000710800087108000871080008710800086C
:10009000710800087108000871080008710800085C
:1000A000710800087108000871080008710800084C
:1000B00071080008710800080D04000871080008A4
:1000C000710800087108000871080008710800082C
:1000D000710800087108000871080008710800081C
:1000E000710800087108000800000000710800088D
:1000F00071080008710800087108000871080008FC
:1001000071080008710800087108000871080008EB
:1001100071080008710800087108000871080008DB
:1001200071080008710800087108000871080008CB
:1001300010B5054C237833B9044B13B10448AFF321
:1001400000800123237010BD1C000020000000006F
:10015000BC08000808B5034B1BB103490348AFF3C3
:10016000008008BD0000000020000020BC0800083E
:1001700080B582B000AF1F4B4FF000621A6000F0F4
:1001800047F800F09BF800F0C3F800F0E3F81A4BD2
:100190001B68194A43F007031360184B4FF0804265
:1001A0001A60174B1B68164A43F001031360154B86
:1001B0001B78DBB2002B19D0124B00221A7072B6DA
:1001C00000237B600AE0104A7B6832F813100F4A64
:1001D0007B6822F813107B6801337B607B680B2BF4
:1001E000F1DD62B60C21094800F0F2F9012000F0BF
:1001F000FFFADCE708ED00E00C08004000E100E059
:10020000000800403A0000203C00002004000020CC
:1002100080B400AF274B1B68264A43F48033136039
:1002200000BF244B1B6803F40033002BF9D0224B92
:100230001B68214A43F4803313601F4B1B681E4A1E
:1002400043F4E01313601C4B1B681B4A43F4003358
:100250001360184B1B68174A43F08073136000BF8C
:10026000144B1B6803F00073002BF9D0124B1B6872
:10027000114A23F0F00313600F4B1B680E4A43F43E
:10028000806313600C4B1B680B4A23F460531360AC
:10029000094B1B68084A43F00203136000BF064B7A
:1002A0001B6803F00C03082BF9D100BF00BFBD464B
:1002B00080BC7047001002400410024080B400AFC0
:1002C000104B1B680F4A43F00C0313600E4B1B6866
:1002D0000D4A23F4706313600B4B1B680A4A43F406
:1002E00030631360094B1B68084A23F07063136086
:1002F000064B1B68054A43F08063136000BFBD4690
:1003000080BC70471810024000080140000C0140FA
:1003100080B400AF0C4B1B680B4A43F400331360EE
:100320000A4B0B221A600A4B1B68094A43F00C0364
:100330001360074B1B68064A43F40053136000BF69
:10034000BD4680BC704700BF1C10024008440040FE
:100350000C44004080B400AF264B1B68254A43F094
:1003600004031360244B47221A60244B4FF6FF729C
:100370001A60234B1B68224A43F003031360204B8F
:100380001B681F4A23F0040313601D4B1B681C4AA3
:1003900023F0F00313601A4B1B68194A43F40073EF
:1003A0001360174B1B68164A23F480631360144BC9
:1003B0001B68134A23F470431360124B1B68114AE5
:1003C00043F0110313600F4B1B680E4A23F0220306
:1003D00013600D4B1B680C4A43F0040313600A4B77
:1003E0001B68094A43F05003136000BFBD4680BC40
:1003F000704700BF1C100240280800402C08004035
:1004000018080040200800400808004080B485B06B
:1004100000AF494B1B68BB60BB6803F00203002BB5
:100420007AD0454B1B68444A23F002031360434BC8
:100430001B687B60424B1B687A689A4205D3404B2D
:100440001B687A68D31AFB6007E03D4B1B687A682B
:10045000D31A03F57F43FF33FB60394A7B6813608F
:10046000384B1B683B60384B1B78DBB2002B03D04A
:10047000354B00221A705AE0344B1B78DBB2002B4C
:1004800034D0334B1B78DBB2002B2FD0FB68B3F595
:100490007A6F0DD33B68FA2B0AD93B68B3F5AF7F6F
:1004A00006D22C4B00221A70284B00221A701DE035
:1004B000FA683B689A4219D9FB6840F6C312934226
:1004C00014D8244B1B78DBB20B2B0FD8214B1B7895
:1004D000DBB21A46FB6899B21F4B23F812101D4B72
:1004E0001B78DBB20133DAB21A4B1A70194B1B7846
:1004F000DBB20B2B05D9154B01221A70174B0122C9
:100500001A70134B1B78DBB2002B0CBF01230023A6
:10051000DBB21A460E4B1A70BB6803F00103002BC6
:1005200005D0054B1B68044A23F001031360143700
:10053000BD4680BC704700BF100800403408004032
:10054000540000203808004000000020390000203E
:1005500001000020380000203C0000203A0000206C
:1005600080B485B000AF78600B46FB700023FB734E
:100570000023BB7321E0BB7B7A6813441A78FB7BB2
:100580005340FB7300237B7311E097F90F30002B6E
:1005900007DAFB7B5B00DBB283F02A03DB43FB73F0
:1005A00002E0FB7B5B00FB737B7B01337B737B7B1C
:1005B000072BEAD9BB7B0133BB73BA7BFB789A422A
:1005C000D9D3FB7B18461437BD4680BC704700006A
:1005D00090B59FB000AF78600B46FB7007F1280321
:1005E00000221A605A609A60DA601A619A820023C7
:1005F00087F87730002387F8763097F877305A1CE1
:1006000087F8772078333B44C82203F8382C97F8D2
:1006100077305A1C87F8772078333B44182203F848
:10062000382C97F877305A1C87F8772078333B447A
:10063000162203F8382C00233B6740E0FB783A6F22
:100640009A4231DA3B6F5B007A6813441B88A7F843
:100650006E30B7F86E30B3F5487F03D24FF448736D
:10066000A7F86E30B7F86E3040F69802934203D97F
:1006700040F69803A7F86E30B7F86E3040F2676224
:1006800002FB03F3A3F5A013A3F5F073554AA2FBF5
:1006900003235B0A9BB2AC339AB23B6F5B007833A7
:1006A0003B4423F8702C07E03B6F5B0078333B44FE
:1006B0004FF4787223F8702C3B6F01333B673B6F2C
:1006C0000F2BBBDD0023BB663CE0BB6E5B007833C9
:1006D0003B4433F8703CC3F30A03A7F85A300023B5
:1006E0007B6629E0B7F85A207B6E22FA03F303F009
:1006F0000103002B18D097F87630DB08D8B20346F8
:1007000078333B4413F8502C97F8763003F0070306
:10071000012101FA03F3DBB201461343DAB201F11E
:1007200078033B4403F8502C97F87630013387F870
:1007300076307B6E01337B667B6E0A2BD2DDBB6E1F
:100740000133BB66BB6E0F2BBFDD00233B6612E09F
:1007500097F877305A1C87F87720194607F1280256
:100760003B6E13441A7801F178033B4403F8382CAC
:100770003B6E01333B663B6E152BE9DD97F8774006
:1007800007F14003023317211846FFF7E9FE03463D
:100790001A4604F178033B4403F8382C97F8773075
:1007A000013387F877300023FB6510E000BF0E4B64
:1007B0001B6803F08003002BF9D007F14002FB6DAA
:1007C00013441A78094B1A60FB6D0133FB6597F8E7
:1007D0007730FA6D9A42E9DB00BF00BF7C37BD4637
:1007E00090BD00BF91739F5D0044004004440040F1
:1007F00080B485B000AF78607B68084A02FB03F3E1
:10080000FB6000E000BFFB685A1EFA60002BF9D1C4
:1008100000BF00BF1437BD4680BC704740190100BF
:100820000D488546AFF300800C480D490D4A002362
:1008300002E0D458C4500433C4188C42F9D30A4A95
:100840000A4C002301E013600432A242FBD300F003
:1008500011F8FFF78DFCFEE700500020000000209B
:100860001C000020DC0800081C00002058000020AC
:10087000FEE7000070B500260C4D0D4B5B1B9C1075
:10088000A64209D1002600F019F80A4D0A4B5B1B5D
:100890009C10A64205D170BD55F8043B984701361F
:1008A000EEE755F8043B98470136F2E7D408000814
:1008B000D4080008D4080008D8080008F8B500BF1C
:1008C000F8BC08BC9E467047F8B500BFF8BC08BC31
:0408D0009E46704789
:0408D40055010008C2
:0408D80031010008E2
:1008DC0001010000DC050000000000000000000029
:0C08EC0000000000000000000000000000
:0400000508000821C6
:00000001FF
